:100000000C943A010C9459010C9459010C94590127
:100010000C9459010C9459010C9459010C945901F8
:100020000C9459010C9459010C9459010C945901E8
:100030000C9459010C9459010C9459010C945901D8
:100040000C9459010C9459010C9459010C945901C8
:100050000C9459010C9459010C9459010C94F1071A
:100060000C9459010C9459010C9459010C945901A8
:100070000C9459010C9459010C9459010C94590198
:100080000C9459010C9459010C9459010C94590188
:100090000C9459010C945901000000000000005F0D
:1000A00000000003000300143E143E14242A7F2A9B
:1000B000124333086661364955225000050300009B
:1000C000001C2241000041221C0014083E081408B4
:1000D000083E0808005030000008080808080060C2
:1000E00060000020100804023E5149453E00040211
:1000F0007F00426151494622414949361814127F16
:100100001027454545393E494949320101710907E2
:100110003649494936264949493E003636000000ED
:10012000563600000814224100141414141400411F
:1001300022140802015109063E4159555E7E090903
:10014000097E7F494949363E414141227F41414133
:100150003E7F494949417F090909013E4141493AE8
:100160007F0808087F00417F4100304040403F7FCA
:10017000081422417F404040407F020C027F7F02F2
:1001800004087F3E4141413E7F090909061E2121A5
:10019000215E7F09090976264949493201017F011B
:1001A000013F4040403F1F2040201F7F2010207F04
:1001B00041221C224107087008076151494543004C
:1001C0007F41000002040810200000417F0004026B
:1001D0000102044040404040000102040020545409
:1001E00054787F4444443838444444443844444474
:1001F0007F385454541804047E0505085454543C64
:100200007F0804047800447D40002040443D007F86
:100210001028440000417F40007C047804787C086A
:1002200004047838444444387C1414140808141422
:10023000147C007C080404485454542004043F44B3
:10024000443C4040207C1C2040201C3C4030403C32
:1002500044281028440C5050503C4464544C4400F2
:100260000836414100007F0000414136080002018C
:100270000204020011241FBECFEFD0E2DEBFCDBFCB
:1002800011E0A0E0B1E0E2E7F7E100E00BBF02C05F
:1002900007900D92A237B107D9F722E0A2E7B1E0AB
:1002A00001C01D92A431B207E1F70E949E090C948F
:1002B000B70B0C940000E1E6F0E080E88083108248
:1002C0000E9427060E948F080C944A098F929F92E1
:1002D000AF92BF92CF92DF92EF92FF920F931F9354
:1002E000CF93DF93CDB7DEB768970FB6F894DEBF34
:1002F0000FBECDBF442349F032EC832E38E7932E56
:1003000041E4A42E40EDB42E08C09FEA892E90E16E
:10031000992E2DE5A22E22E3B22E9EE189026001E4
:100320001124A601415D5F4F242F5A8B498BF601A2
:10033000FF964E2FFC8BEB8B8EE16802700111242F
:10034000C7010796682F9E8B8D8B4096988F8F8B59
:1003500085013A895C897E89988D0E94EF04C601E7
:10036000C096282F9A8789870E96482F9C878B875F
:10037000C7010896682F9E878D870E96988B8F876A
:1003800084013A855C857E8598890E94EF04C601C8
:10039000C296282F9A8389839CE3C90ED11C4C2DC9
:1003A000DC82CB82C7010A96682F9E838D830A96D2
:1003B00098878F8385013A815C817E8198850E9430
:1003C000EF0468960FB6F894DEBF0FBECDBFDF9185
:1003D000CF911F910F91FF90EF90DF90CF90BF9042
:1003E000AF909F908F900895FC0142816181808140
:1003F0000C946601E2E0F1E020E030E09081981397
:100400000BC09181961308C0C901880F991F880FEE
:10041000991F8E5F9E4F08952F5F3F4F349628316E
:10042000310561F780E090E008956F927F928F929E
:100430009F92AF92BF92CF92DF92EF92FF920F9373
:100440001F93CF93DF93CDB7DEB760970FB6F894C5
:10045000DEBF0FBECDBF782E662E80917201871150
:1004600004C080917301861719F008E212E402C0FB
:100470000DEA16E7872C072C000C9908872D9EE1C2
:10048000890260011124C6018896282F9A878987DE
:100490004E96482F9C878B87A62C062C000CBB08F9
:1004A000862D9EE18902700111246E2DFE86ED8657
:1004B000C7014E96988B8F873A855C857E85988993
:1004C0000E94EF0480917201781204C08091730140
:1004D000681629F1C60189969A83898385E4C80E36
:1004E000D11CDC82CB82C70101969E838D839DE166
:1004F000E90EF11CF886EF82A80CB91CA0FE03C01F
:1005000001E010E102C004EC18E129813A814B813D
:100510005C816D817E818F8198850E94EF04662DBC
:10052000872D0E94FA010097B1F060960FB6F894FB
:10053000DEBF0FBECDBFDF91CF911F910F91FF9016
:10054000EF90DF90CF90BF90AF909F908F907F9073
:100550006F900C94F40160960FB6F894DEBF0FBE56
:10056000CDBFDF91CF911F910F91FF90EF90DF9062
:10057000CF90BF90AF909F908F907F906F90089595
:10058000CF93DF930E94F105D0E0C0E06C2F8D2F58
:100590000E941502CF5FC830C9F7DF5FD830A9F7D6
:1005A000DF91CF910895E0917601F09177018081FC
:1005B0008F3F61F581818F3F49F540910001909116
:1005C0007201242F042E000C330B291B310997FDD7
:1005D0003395B9016F5F7F4F63307105B8F4828145
:1005E000811107C04091010190917301491305C029
:1005F0000EC0813059F4491749F037FF03C03195D7
:100600002195310981E02130310509F080E008951C
:10061000CF93DF93C0917201D09173016D2F8C2F16
:100620000E94FA01009721F4C83010F4D83020F16C
:10063000E0917601F0917701DC0112969C91828124
:100640009817E1F0809100018C1714F481E001C04B
:100650008FEF8C0F909101019D1714F461E001C0A0
:100660006FEF6D0F683050F4883040F40E94FA014B
:1006700021E0892B19F403C021E001C020E0822F82
:10068000DF91CF9108951F93CF93DF93C0917601AF
:10069000D09177012097E9F4C0917301D091720154
:1006A0006C2F8D2F0E94FA01FC01892B09F478C070
:1006B000928180917801981373C0D0930001C09308
:1006C00001018FEF80838183F0937701E0937601BE
:1006D00067C00E94D302882309F447C00E94080320
:1006E000882309F442C01091720160917301812F37
:1006F0000E94FA01FC01892B49F192818A819817A5
:1007000029F1918180910001811724F480818F5F0C
:10071000888302C0115018838091730120910101D8
:10072000A0917601B0917701281714F48F5F02C071
:100730008FEF890F11968C938EEF80838183909138
:10074000780181E0891B8093780108C01883E091CB
:100750007601F09177018091730181839091780106
:1007600081E0891B809378010AC080910001888311
:10077000E0917601F0917701809101018183E09110
:100780007601F0917701618180810E9415021092BB
:100790007701109276018FEF809300018093010121
:1007A0006091730180917201DF91CF911F910C9440
:1007B00015022091720130917301482F082E000C10
:1007C000550B420F511D27FD5A954830510530F405
:1007D000922F980F9093720141E001C040E0862F64
:1007E000062E000C990B830F911D37FD9A950897E3
:1007F00028F4932F960F9093730102C0442351F075
:10080000632F822F0E941502609173018091720103
:100810000C9415020895CF93DF93EC0184E00E94BD
:100820007909882321F06FEF80E00E94D90388E0E6
:100830000E947909882321F060E081E00E94D903B9
:1008400080E10E947909882321F061E080E00E9424
:10085000D90380E20E947909882321F060E08FEFBC
:100860000E94D90380E80E94790981110E94430304
:10087000CE01DF91CF91089593E89093B00091E07D
:100880009093B1008093B300089590938501809375
:10089000840126E330E020930040009779F480EF54
:1008A00090E0909381018093800180E491E09093A7
:1008B00083018093820188E490E034C08130910507
:1008C00079F480E491E0909381018093800180EF3E
:1008D00090E0909383018093820188EE90E022C0A3
:1008E0008230910579F480EF90E0909381018093BC
:1008F000800180E491E0909383018093820188E8F5
:1009000090E010C0039781F480E491E0909381011E
:100910008093800180EF90E0909383018093820127
:1009200088E290E0809300418AE290E0809300406A
:1009300020E030E03093004120930041809180011D
:1009400090918101019790930041809300418BE247
:1009500090E08093004030930041209300418091CB
:10096000820190918301019790930041809300410F
:100970000895CF93873748F4883048F08D3350F48A
:100980008F3150F4803150F403C086E703C088E013
:10099000C3E005C0C0E003C0C1E001C0C2E021EB7C
:1009A00030E020930040C0930041682F70E080E069
:1009B00090E00E94BE0A9B01AC0160E070E080EF15
:1009C00094E40E941B0A0E948D0A70E002C0759593
:1009D0006795CA95E2F760930041CF9108950F9310
:1009E0001F93CF93DF93CDB7DEB728970FB6F89458
:1009F000DEBF0FBECDBF29833A834B835C836D83FB
:100A00007E838F83988769817A812B813C814D8198
:100A10005E818F819885EAE2F0E0E0930040709378
:100A20000041609300413093004120930041EBE28C
:100A3000F0E0E093004050930041409300419093D8
:100A4000004180930041ECE2F0E0E09300402F5F32
:100A50003F4F261B370B0196841B950B2817390730
:100A600090F4482F4770429FB001439F700D1124AE
:100A700053E0969587955A95E1F7829FA001839F51
:100A8000500D112411C0422F4770489FB001499F5B
:100A9000700D112443E0369527954A95E1F7289F7C
:100AA000A001299F500D1124862F8770815028F0B6
:100AB0001093004100930041F9CFCB0123E09695BC
:100AC00087952A95E1F7840F951F019708F11093F8
:100AD00000410093004110930041009300411093A6
:100AE0000041009300411093004100930041109396
:100AF0000041009300411093004100930041109386
:100B00000041009300411093004100930041DDCF6C
:100B100028960FB6F894DEBF0FBECDBFDF91CF9100
:100B20001F910F910895EF92FF920F931F93CF9310
:100B3000DF93CDB7DEB728970FB6F894DEBF0FBEB0
:100B4000CDBF29833A834B835C836D837E838F8300
:100B5000988789819A81EB80FC806D817E81AF814D
:100B6000B8852AE230E020930040909300418093C2
:100B70000041F0920041E09200412BE230E02093EE
:100B800000407093004160930041B0930041A093F6
:100B900000412CE230E020930040E816F906A0F076
:100BA000A8019B018A01A217B30760F04E5F5F4F57
:100BB000F8010081118110930041009300412F5FE3
:100BC0003F4FF0CF0196E9CF28960FB6F894DEBFDD
:100BD0000FBECDBFDF91CF911F910F91FF90EF908E
:100BE00008950F931F93CF93DF93CDB7DEB7289768
:100BF0000FB6F894DEBF0FBECDBFE0E8F1E017827C
:100C00001682118610861A8219828081918101973D
:100C1000482F9C838B831E821D8282819381019742
:100C200098878F830485158520E03A815C8160E098
:100C30007E8198850E94EF0428960FB6F894DEBF57
:100C40000FBECDBFDF91CF911F910F91089586E028
:100C50008093750080E8809374003F9A249A8FEC0B
:100C600097E00197F1F700C0000047988FE39CE9F7
:100C70000197F1F700C00000479A9FEF2DEE82E048
:100C8000915020408040E1F700C0000088E290E0F1
:100C90008093004081E190E0809300409FEF26E741
:100CA00081E0915020408040E1F700C0000021E049
:100CB00030E08BEC90E0809300402093004180EC8A
:100CC00090E08093004088E096E29093004180930A
:100CD000004120E130E081EC90E0809300402093DF
:100CE000004185EC90E0809300408EE395E3909383
:100CF00000418093004125EB30E087EC90E0809349
:100D000000402093004121E030E086EF90E08093A6
:100D100000402093004180E090E090930041809358
:100D2000004125E530E08AE390E080930040209385
:100D3000004181E090E00E9445040E94F105E0E856
:100D4000F1E01782168211861086158614868FEFC1
:100D50009FEF9387828789E290E0809300409FE72E
:100D600028E381E0915020408040E1F700C000007E
:100D700020E030E085E390E0809300402093004144
:100D8000EAE6F0E08081806280832C9A08959F9249
:100D9000AF92BF92CF92DF92EF92FF920F931F9389
:100DA000CF93DF9320918801309189018A30F9F443
:100DB0001092870110928601285F3F4F309389017E
:100DC000209388018091820190918301281739072F
:100DD00008F4A5C0DF91CF911F910F91FF90EF9084
:100DE000DF90CF90BF90AF909F900C94F10590EE64
:100DF000980F9F3508F093C060918601709187012C
:100E0000A901495F5F4F082E000C990B8097E5E020
:100E1000E89FE001E99FD00D11248BE290E08093E0
:100E20000040309300412093004150930041409393
:100E30000041CB01DB0114960AE210E0ECE2EE2E59
:100E4000F12CA817B90780F100930040909300415E
:100E5000809300419093004180930041E0920040D4
:100E6000FC01E61BF70BEC0FFD1FE856FF4F9490BB
:100E70006901F1E04C155D05A8F0BF2EB92029F0FD
:100E8000A0908A01B0908B0104C0A0908C01B0901A
:100E90008D01B0920041A0920041EFEFCE1ADE0A20
:100EA000FF0FE8CF0196CDCF6AE270E0609300407B
:100EB00090930041809300419093004180930041C2
:100EC0008CE290E0809300404217530758F08091E5
:100ED0008C0190918D0190930041809300412F5F90
:100EE0003F4FF2CF809186019091870106969093B3
:100EF00087018093860120918001309181018217C2
:100F0000930768F010928701109286018091880102
:100F10009091890108969093890180938801DF91CF
:100F2000CF911F910F91FF90EF90DF90CF90BF90E6
:100F3000AF909F9008950F931F93CF938C01C0E0C3
:100F4000F801EC0FF11D8081882321F00E94C70673
:100F5000CF5FF6CFCF911F910F9108950F931F93FD
:100F6000CF938C0170938701609386015093890120
:100F700040938801C0E0F801EC0FF11D80818823C7
:100F800021F00E94C706CF5FF6CFCF911F910F913E
:100F90000895EF92FF920F931F93CF93DF93C0E0DA
:100FA000D0E090E8E92EF12C082F10E0C7010C2EBC
:100FB00002C0959587950A94E2F780239123892BA7
:100FC00011F081E301C08EE20E94C7062196C8306D
:100FD000D10561F7DF91CF911F910F91FF90EF90B5
:100FE00008951F920F920FB60F9211240BB60F9215
:100FF000CF92DF92EF92FF920F931F932F933F9325
:101000004F935F936F937F938F939F93AF93BF9310
:10101000CF93DF93EF93FF9310E00DE0DD24D394A3
:10102000CC24CA94E12EF12C80916D01082E000C85
:10103000990B8E159F050CF457C00E9DE0010F9D76
:10104000D00D1124C257DE4F4D815E816F817885AE
:1010500089819A81AB81BC81481759076A077B0750
:1010600078F1E0917B01F0E0EE59FE4F8081181796
:1010700038F58881811124C0F8941D821E821F8258
:101080001886D882E0917B01EF5FE0937B01F0E06E
:10109000EE59FE4F10837894E985FA858B859C85FF
:1010A00009959C878B87F894188280917B01E82FA3
:1010B000F0E0EE59FE4FC082815080937B0178941E
:1010C0000E9DF0010F9DF00D1124E257FE4F85811A
:1010D0009681A781B0850196A11DB11D8583968358
:1010E000A783B0871F5F9ECFFF91EF91DF91CF91D4
:1010F000BF91AF919F918F917F916F915F914F9130
:101100003F912F911F910F91FF90EF90DF90CF9023
:101110000F900BBE0F900FBE0F901F90189583E895
:1011200084BD85B5836085BD81E080936E0016BC6B
:101130008FEF87BD0895882319F087BD279A0895FA
:1011400027980895EF92FF920F931F93CF93DF9309
:101150007C01C0916D010C2E000CDD0B2196CA3074
:10116000D1055CF58901CB01BA010E94BC0A25E7D3
:1011700032E04AEF5EE30E944A0B20E030E040E0BC
:101180005FE30E94AF090E948D0A2DE02C9FF001C1
:101190002D9FF00D1124E257FE4F618372838383EC
:1011A000948365837683878390871082F286E186B5
:1011B00014870387C0936D0102C0CFEFDFEFCE012C
:1011C000DF91CF911F910F91FF90EF900895AC01A7
:1011D000F8949CB195FF02C023E001C020E094FF89
:1011E00002C081E0282790917F01921B90FF09C0E7
:1011F00020937F012091130292702150920F9093BF
:1012000013027894CA010895AC01F89496B18CB198
:1012100023B130911202906C8F6798232F6B922329
:101220009095392720917E012323922F90959093BA
:101230007E0120917D012323292720937D01932383
:101240009223809112028927809312022091120228
:10125000809110029223982B909310028091120299
:101260008C7F19F48CE380937C0180917C01815008
:1012700019F080937C010BC08AE080937C018091FF
:101280001202909111028C7F892B80931102789425
:10129000CA0108958DB18F7C8DB98EB180638EB9EE
:1012A0006F98779A87B1837C87B988B18C6388B946
:1012B00026982E9A20E030E042E050E060E070E0B6
:1012C00087EE98E00E94A20820E030E04AE050E07B
:1012D00060E070E084E099E00C94A208F8948091BA
:1012E0001302909113029170909313027894859554
:1012F0000895F894909110028923909110029827F4
:101300009093100278940895F89490911102892393
:1013100090911102982790931102789408959091DA
:10132000120289230895F8949091120290958923CE
:101330000C9479090E9484090C9479090E945B013C
:1013400021E030E044E650E060E070E08BE094E0C3
:101350000E94A2080E94C0027894FFCF5058BB2779
:10136000AA270E94C6090C94100B0E94020B38F0A9
:101370000E94090B20F039F49F3F19F426F40C94D5
:10138000FF0A0EF4E095E7FB0C94F90AE92F0E949E
:10139000210B58F3BA17620773078407950720F0EB
:1013A00079F4A6F50C94430B0EF4E0950B2EBA2FAE
:1013B000A02D0B01B90190010C01CA01A00111245B
:1013C000FF27591B99F0593F50F4503E68F11A1607
:1013D000F040A22F232F342F4427585FF3CF469598
:1013E00037952795A795F0405395C9F77EF41F16BA
:1013F000BA0B620B730B840BBAF09150A1F0FF0F84
:10140000BB1F661F771F881FC2F70EC0BA0F621F6F
:10141000731F841F48F4879577956795B795F7955F
:101420009E3F08F0B0CF9395880F08F09927EE0FF4
:101430009795879508950E942F0A0C94100B0E948F
:10144000090B58F00E94020B40F029F45F3F29F08D
:101450000C94F90A51110C94440B0C94FF0A0E944D
:10146000210B68F39923B1F3552391F3951B550B89
:10147000BB27AA2762177307840738F09F5F5F4F67
:10148000220F331F441FAA1FA9F335D00E2E3AF0A6
:10149000E0E832D091505040E695001CCAF72BD0BE
:1014A000FE2F29D0660F771F881FBB1F261737070F
:1014B0004807AB07B0E809F0BB0B802DBF01FF2741
:1014C00093585F4F3AF09E3F510578F00C94F90A1B
:1014D0000C94440B5F3FE4F3983ED4F386957795E4
:1014E0006795B795F7959F5FC9F7880F911D9695FA
:1014F000879597F90895E1E0660F771F881FBB1F56
:10150000621773078407BA0720F0621B730B840B02
:10151000BA0BEE1F88F7E09508950E94290B88F01A
:101520009F5798F0B92F9927B751B0F0E1F0660FA7
:10153000771F881F991F1AF0BA95C9F714C0B130E8
:1015400091F00E94430BB1E008950C94430B672F78
:10155000782F8827B85F39F0B93FCCF38695779517
:101560006795B395D9F73EF4909580957095619500
:101570007F4F8F4F9F4F0895E89409C097FB3EF42B
:1015800090958095709561957F4F8F4F9F4F9923D0
:10159000A9F0F92F96E9BB279395F695879577954E
:1015A0006795B795F111F8CFFAF4BB0F11F460FF0E
:1015B0001BC06F5F7F4F8F4F9F4F16C0882311F066
:1015C00096E911C0772321F09EE8872F762F05C07A
:1015D000662371F096E8862F70E060E02AF09A9515
:1015E000660F771F881FDAF7880F9695879597F90A
:1015F000089597F99F6780E870E060E008959FEF95
:1016000080EC089500240A94161617061806090699
:10161000089500240A941216130614060506089568
:10162000092E0394000C11F4882352F0BB0F40F4F0
:10163000BF2B11F460FF04C06F5F7F4F8F4F9F4F30
:10164000089557FD9058440F551F59F05F3F71F0B2
:101650004795880F97FB991F61F09F3F79F0879519
:101660000895121613061406551FF2CF4695F1DFA2
:1016700008C0161617061806991FF1CF8695710532
:10168000610508940895E894BB2766277727CB0166
:1016900097F908950E945D0B0C94100B0E94020BA9
:1016A00038F00E94090B20F0952311F00C94F90AF0
:1016B0000C94FF0A11240C94440B0E94210B70F32C
:1016C000959FC1F3950F50E0551F629FF001729FE7
:1016D000BB27F00DB11D639FAA27F00DB11DAA1FF6
:1016E000649F6627B00DA11D661F829F2227B00D43
:1016F000A11D621F739FB00DA11D621F839FA00DCE
:10170000611D221F749F3327A00D611D231F849F1D
:10171000600D211D822F762F6A2F11249F57504074
:101720009AF0F1F088234AF0EE0FFF1FBB1F661FEF
:10173000771F881F91505040A9F79E3F510580F0B8
:101740000C94F90A0C94440B5F3FE4F3983ED4F3F5
:10175000869577956795B795F795E7959F5FC1F75C
:10176000FE2B880F911D9695879597F90895F8940B
:02177000FFCFA9
:10177200FFFF010000000300000005000000070059
:101782000000000100000201000004010000060147
:10179200000001020000030200000502000007022F
:1017A200000000070100020701000407010006070C
:1017B20001000106010003060100050601000706FB
:1017C20001000005010002050100040501000605F3
:1017D2000100FF00000000000000000000FFFF0009
:0217E200000005
:00000001FF
